:020000040800F2
:1000000060C6002069010008552200080D20000884
:10001000512200087D0D0008633200080000000036
:10002000000000000000000000000000952B000808
:10003000B31100080000000069230008A92D000882
:100040008301000883010008830100088301000880
:100050008301000883010008830100088301000870
:1000600083010008830100082D1A0008830100089D
:100070008301000883010008830100088301000850
:100080008301000883010008830100088301000840
:100090008301000883010008830100088301000830
:1000A0008301000883010008830100088301000820
:1000B0008D2E0008B92E0008E12E000883010008EB
:1000C0008301000883010008830100088301000800
:1000D0008301000883010008B9310008830100088A
:1000E000830100088301000883010008000000006C
:1000F0000000000000000000000000000000000000
:1001000000000000000000008301000883010008D7
:1001100083010008830100088301000883010008AF
:10012000830100088301000883010008830100089F
:1001300083010008351400088301000883010008CA
:10014000830100088301000883010008830100087F
:10015000DFF80CD000F018FD00480047017E0008D1
:1001600060C60020704700000648804706480047E8
:10017000FEE7FEE7FEE7FEE7FEE7FEE7FEE7FEE757
:10018000FEE7FEE7B12D00085101000840EA010337
:100190009B070AD102E008C9121F08C0042AFAD23C
:1001A00003E011F8013B00F8013B521EF9D2704701
:1001B000D2B201E000F8012B491EFBD270470022A9
:1001C000F6E710B504460846114602462046FFF7FA
:1001D000EFFF204610BD30B50EE003460A4601E0B1
:1001E0005B1C521C1C781578AC4201D1002CF7D155
:1001F0001278002A04D0401C0278002AEDD1002099
:1002000030BD0146002000E0401C0A5C002AFBD102
:10021000704710B5002200E0521C835C8C5CA34246
:1002200001D1002BF8D1805C895C401A10BD30B53B
:1002300004460020034600E05B1C934203D2E05CCE
:10024000CD5C401BF8D030BD034611F8012B00F8FF
:10025000012B002AF9D11846704730B500252B46EE
:1002600000E05B1C934205D2C45CCD5C651B01D1F0
:10027000002CF6D1284630BDF0B480EA0102D20F3E
:100280004300B3EB410F02D20346084619464B0028
:1002900042D0C30DDDB2C1F3C7542C1B202C35DA7C
:1002A000C1F3160141F4000502B16D42C4F120060C
:1002B00005FA06F125412844B3EBD05F23D0C2B143
:1002C000012CA0EBC35009DCF0BC4FF0004202EA65
:1002D000C35200F50000DBB200F0A5BA400000F107
:1002E000807000EBC350A0F1807040EAD1704900EB
:1002F00009E0490841EAC071A0EBC35000F50000D5
:10030000400800EBC350F0BC00F084BA5142012316
:1003100003EB4101801AF6E7F0BC704781F0004121
:10032000AAE780F00040A7E780EA010210B502F0DA
:100330000042400001D04B0001D1002010BD4FEA27
:10034000106101EB1361C0F35600C3F3560340F490
:10035000000043F40003A0FB0330A1F17F014FEA4A
:1003600000401C0401D000F1010050EA134001D408
:100370004000491EC3B20C0604EBD010401C4008DC
:10038000802B01D120F00100002900DA0020104369
:1003900010BD80EA010202F0004330B430F00042A8
:1003A00021F0004015D0A0B1C0F3C754C2F3C75527
:1003B000C2F31601C0F316002D1B41F4000140F4F6
:1003C00000007D35814201D36D1C00E04900002D05
:1003D00002DA30BC002070474FF400020024814252
:1003E00001D3091A144352084FEA4101F7D151B120
:1003F000814202D14FF0004105E002D24FF00101ED
:1004000001E06FF0010104EBC55030BC184400F06E
:1004100001BA2DE9F04D834681EA030023F0004440
:1004200088B000F00040002321F00045079085EAE5
:1004300003018BEA03009246084305D084EA0301D6
:100440008AEA0300084304D10020014608B0BDE851
:10045000F08DC4F30A50C5F31301C5F30A52131803
:10046000ABFB0A2541F48018C4F3130141F4801456
:10047000A3F2F33308FB0A5104930BFB04134FEA76
:100480009B204FEA9A2140EA885041EA8451A0FB20
:1004900001654FEA982707FB01514FEA942C00FBB6
:1004A0000C1739053005151A41EA163163EB0101C5
:1004B00005914FEA9B604FEA9A6140EA881041EA51
:1004C0008411A0FB0140321E804667EB0403280D17
:1004D0000599C5F3130540EA0130861843EB115026
:1004E000001948F10001049B2A030C3B46EA15540D
:1004F0000293079D0023CDE90035234600F0DAF989
:10050000A4E72DE9FF0F054681EA0302002082B02F
:1005100002F0004223F00046CDE90002034621F03C
:10052000004484EA030168404FF4801A084325D050
:100530000023049886EA0301584008431ED0C4F300
:100540000A51C4F3130242F48014C6F3130242F4B6
:100550008012C6F30A5013460592081A049A00F254
:10056000FD3BA81AD04674EB030102D30BF1010B3B
:1005700001E06D196441BBF1000F05DA06B0BDE87A
:10058000F00F00200146704700264746B046B246AD
:1005900011E0DDE90423A81A74EB030106D3AD1AB8
:1005A00064EB030448EA06084AEA070A7F084FEAB0
:1005B00036066D196441002387EA030186EA0300C9
:1005C0000843E6D184EA030185EA0300084315D015
:1005D000DDE9042384EA030185EA0200084303D12C
:1005E00000254FF0004409E0A81A74EB030102D281
:1005F0000125002402E06FF001056C10DDE9002305
:1006000018F100004AEB0B518018594123462A4645
:1006100006B0BDE8F00F00F034B9C10F80EAE07019
:100620000844CA079623002100F0FDB80EB5C20F9A
:1006300080EAE07010440021D20740F233438DE895
:100640000E000B460A4600F035F903B000BD0EB5AA
:10065000002140F233430091CDE901130B460A46D5
:1006600000F028F903B000BD20F00040C10DC0F338
:10067000160040F400007F2901DA00207047962917
:1006800003DCC1F19601C840704796398840704735
:1006900070B501F0004621F000410A0D0025C1F3BC
:1006A000130140F2FF3341F480119A4201DA002035
:1006B00070BD40F233439A42A2F2334203DC52420D
:1006C00000F099F801E000FA02F00023044686EAFF
:1006D000030185EA0300084301D0604270BD204653
:1006E00070BD00F0004230F0004001D1014670477B
:1006F000C30DC0F3160003F56073C108400742EA5A
:10070000035211437047F0B40023054601F0004640
:1007100021F0004484EA03015840084306D0200D2C
:10072000A0F56070C4F31301002802DCF0BC0020C7
:1007300070476A0F42EAC1023244E900F0BC02EBA2
:10074000C05000F067B80000002801DBC0F1004095
:10075000002901DBC1F1004181427047002801DB23
:10076000C0F10040002901DBC1F10041884270471F
:1007700030B50B46014600202022012409E021FA71
:1007800002F59D4205D303FA02F5491B04FA02F56E
:100790002844151EA2F10102F1DC30BD2DE9F0471D
:1007A000002591469A46074688462E46402418E082
:1007B00022464146384600F01EF8B0EB090071EBC6
:1007C0000A010ED322465146484600F0EFF93F1A7F
:1007D00068EB010822460021012000F0E7F94519E5
:1007E0004E41201EA4F10104E2DC284631463A467F
:1007F0004346BDE8F087202A04DB203A21FA02F0C4
:1008000000217047D040C2F1200301FA03F31843DE
:10081000D14070470029A8BF7047401C490008BF5D
:1008200020F00100704710B4B0FA80FC00FA0CF020
:1008300050EA010404BF10BC704749B1CCF1200458
:1008400021FA04F411FA0CF118BF012121430843E5
:10085000A3EB0C01CB1D4FEA00614FEA102042BF11
:10086000002010BC704700EBC35010440029A4BF07
:1008700010BC7047401C490008BF20F0010010BCAC
:100880007047F0B51F46044600230D46D01A1646A1
:1008900077EB03010BDA641C45F10005B01947EB57
:1008A000070159405840084301D124F00104204673
:1008B0002946F0BD2DE9F04D92469B4611B1B1FAA3
:1008C00081F602E0B0FA80F62036324600F06EF98A
:1008D00004460D46002340EA0A0041EA0B01594054
:1008E0005840084303D120462946BDE8F08D002337
:1008F0008BEA03018AEA0300084319D0C6F14002DB
:1009000059465046FFF777FF074688463246594614
:10091000504600F04BF9002359405840084300D09E
:1009200001204FEAE071384348EA010104430D43D6
:100930000A984FEA4457A0EB06034FEAD4200A3343
:100940004FF0000640EA45504FEAD52102D500207D
:100950000146CAE7001C41EB0351DDE9082380187A
:1009600059413B463246BDE8F04D8AE72DE9FF4D3F
:1009700081EA030086B04FEAD07806981D460F46FC
:1009800023F0004321F00041801A1646994105D218
:10099000394606982F46069606460D46002325F052
:1009A0000041594086EA0300084304D106983946BD
:1009B0000AB0BDE8F08D3C0DC4F30A00C5F30A513E
:1009C0000590401A049040286BDAC5F3130040F4F8
:1009D000801AB8F1000F02D076426AEB4A0A0498F6
:1009E0005146C0F14002304600F0E0F883460D4623
:1009F00051463046049A00F0E9F8069A86184F41AD
:100A000084EA175050EAE47042D0B8F1000F2CD0BD
:100A100004984FF0000201284FEA045312DCB01A88
:100A200067EB03014FF0004303EA0454059B001CED
:100A3000CDE90143009241F580112B465A46FFF75C
:100A400039FFB5E7B01A67EB0301001C41F58011CF
:100A500000184941001CA3F5001341EB030740EACD
:100A6000D5761BEB0B0B6D4112E06D084FEA3B0B8B
:100A70004FEA0454301E67EB0401001C41F580115D
:100A8000490845EAC6754FEA3000061C41EB0407E9
:100A90002B465A46394630460AB0BDE8F04DFFF7BE
:100AA000F0BE4FEA48000122141A0023069A63EBB5
:100AB000E073B2EB080067EBE8712246ECE783F0E5
:100AC000004353E781F0004150E770B50C46002326
:100AD000054621F00041594058401646084302D1CE
:100AE0002846214670BDC4F30A500021424261EB02
:100AF00041034FEAE671921B8B4102DB0020014665
:100B000070BD281C44EB065170BD21F000410A0D58
:100B1000C1F3130140F2FF3341F480119A4202DA2B
:100B200000200146704740F233439A42A2F233421A
:100B300002DC5242FFF75FBE00F038B82DE9F04109
:100B400007460D46002001F0004141404040164656
:100B50001C464FF00048084302D17F4268EB050570
:100B6000002004F0004141404040084302D1764259
:100B700068EB04043846294632462346994208BFAA
:100B80009042BDE8F0810000064C074D06E0E068A9
:100B900040F0010394E8070098471034AC42F6D3C4
:100BA000FFF7DAFA44EA000864EA0008202A04DBC6
:100BB0000023203A00FA02F106E000FA02F3914025
:100BC000C2F12002D040014318467047202A06DBBC
:100BD000203A41FA02F0C21742EAE1717047D04070
:100BE000C2F1200301FA03F31843114170472DE9C4
:100BF000FE4F00231A1A07460C468B4104DB0020E7
:100C0000014603B0BDE8F08FC4F31300C4F30A56E5
:100C100040F48011F00702D1FF194941761E40F2DD
:100C2000FF1000EB6600029000203E460D46824613
:100C30008346044622464FF480110020FFF7DBFD77
:100C400010EB0A0741EB0B081AEB07004BEB08010E
:100C5000321ACDE9000175EB010304D3361A65EBB6
:100C60000105BA46C346B6196D41641C342CE1DD5A
:100C70001AEB0A004BEB0B01801BA94102D24FF08B
:100C8000FF3400E0002402991AF100004BEB0151FF
:100C90002346224603B0BDE8F04FFFF7F2BD000047
:100CA0002DE9F04107460D46002001F0004141408A
:100CB000404016461C464FF00048084302D17F4290
:100CC00068EB0505002004F0004141404040084326
:100CD00002D1764268EB0404384629463246234660
:100CE0008B4208BF8242BDE8F081000070B501EB85
:100CF000020410F8015B15F0070301D110F8013B65
:100D00002A1106D110F8012B03E010F8016B01F84D
:100D1000016B5B1EF9D12B0706D4002301E001F81B
:100D2000013B521EFBD50CE010F8013B02F1020220
:100D3000A1EB030303E013F8015B01F8015B521E12
:100D4000F9D5A142D5D3002070BD000010B50848E8
:100D5000007801280AD10748008807490988884295
:100D600004DB02F01BFA00200149087010BD0000EE
:100D7000C0050020C2050020C405002000BFFEE71A
:100D800070B5A748007800282FD1482000F012FA4B
:100D9000142000F029FA01F091F90920A149087006
:100DA00054204870692088706D20C87065200871D3
:100DB0003A2048710920C87254200873652048738E
:100DC0006D2088737020C8733A2008740920C87594
:100DD0002E200875C876092088770D20C8770A204C
:100DE00081F8200001208E49087072B68E4800F00C
:100DF00051F9044662B604B970BD2046FFF70DFCF8
:100E00008A4908608A48006842F21071B0FBF1F02C
:100E10003030844988718648006842F21071B0FB16
:100E2000F1F201FB12004FF47A71B0FBF1F03030B7
:100E30007C49C8717E48006842F21071B0FBF1F243
:100E400001FB12004FF47A71B0FBF1F201FB1200CA
:100E50006421B0FBF1F030307249087274480068C8
:100E600042F21071B0FBF1F201FB12004FF47A7103
:100E7000B0FBF1F201FB12006421B0FBF1F201FBC7
:100E800012000A21B0FBF1F0303066494872684820
:100E9000006842F21071B0FBF1F201FB12004FF456
:100EA0007A71B0FBF1F201FB12006421B0FBF1F2A8
:100EB00001FB12000A21B0FBF1F201FB12003030FD
:100EC0005849887242F2107094FBF0F03030487448
:100ED00042F2107094FBF0F100FB11404FF47A7174
:100EE00090FBF1F030304F49887442F2107094FB5F
:100EF000F0F100FB11404FF47A7190FBF1F201FB2D
:100F00001200642190FBF1F030304649C87442F27F
:100F1000107094FBF0F100FB11404FF47A7190FBDC
:100F2000F1F201FB1200642190FBF1F201FB1200CF
:100F30000A2190FBF1F030303A49487542F21070C6
:100F400094FBF0F100FB11404FF47A7190FBF1F249
:100F500001FB1200642190FBF1F201FB12000A2157
:100F600090FBF1F201FB120030302E49887542F2FD
:100F7000107095FBF0F03030087642F2107095FB5F
:100F8000F0F100FB11504FF47A7190FBF1F030302A
:100F90002449487642F2107095FBF0F100FB1150A5
:100FA0004FF47A7190FBF1F201FB1200642190FB87
:100FB000F1F030301B49887642F2107095FBF0F169
:100FC00000FB11504FF47A7190FBF1F201FB12001B
:100FD000642190FBF1F201FB12000A2190FBF1F079
:100FE00030301049087742F2107095FBF0F100FBA9
:100FF00011504FF47A7190FBF1F201FB1200642161
:1010000090FBF1F201FB12000A2190FBF1F201FBCF
:1010100012003030034948778C77CD77ECE600003A
:10102000AE0400207C1300209D130020B00400209B
:101030009C04002010B5002401F0FEFD002002F009
:1010400013F90C2000F0F0F8012002F00DF901F086
:10105000DDFD0A2000F0E8F80821054800F012FF45
:1010600000B10124282000F0DFF8204610BD000068
:101070000018014070B50025002407E06D10FFF74F
:10108000D9FF08B145F08005601CC4B2082CF5DB1F
:10109000284670BD2DE9FF41074600F033F820B91E
:1010A0004FF0FF3004B0BDE8F081CC2000F074F8C0
:1010B000442000F071F800F025F8CC2000F06CF826
:1010C000BE2000F069F8FFF7D5FF0546FFF7D2FF15
:1010D00004462646300206B22E433046FFF7A6FAF3
:1010E000CDE9020105A00CC80298FFF792F9CDE9FD
:1010F0000001FFF7CDFA06B23046D3E7000000004A
:101100000000194010B5002401F096FD012002F006
:10111000ABF8012000F088F8002002F0A5F84FF4A9
:10112000FA7000F081F8012002F09EF8022000F031
:101130007BF801F06BFD08E0601CC4B2012000F0F8
:1011400073F8642C01DD002010BD0821054800F073
:1011500099FE0028F0D14FF4CD7000F065F8012021
:10116000F2E700000018014010B5044601F064FDEC
:10117000002002F079F80C2000F056F804F001008D
:1011800002F072F81E2000F04FF8012002F06CF817
:10119000052000F049F810BD70B50446002505E0B3
:1011A0002046FFF7E1FF6410681CC5B2082DF7DB8D
:1011B00070BD70474FF0E021096921F004014FF044
:1011C000E02211610146C21700EB5272D210054BAA
:1011D0001A70194609784FF47A7251439A1C11809B
:1011E00070470000980400200E49098841434FF0E1
:1011F000E02251611146096941F00101116100BF0E
:101200004FF0E021096911F4803FF9D04FF0E0215F
:10121000096921F001014FF0E02211610021916183
:10122000704700009A0400200B49097841434FF0B1
:10123000E02251611146096941F00101116100BFCD
:101240004FF0E021096911F4803FF9D000214FF0FF
:10125000E0221161916170479804002001494861C2
:10126000704700000090024029B1064AD26902434B
:10127000044BDA6104E0034AD2698243014BDA612C
:10128000704700000090024030B10749896941F081
:101290000201054A916105E00349896921F00201D3
:1012A000014A9161704700000090024030B500246F
:1012B000104D286000BF18E000EB04134FF000450C
:1012C0001D6044F2F0555D60C4EB441505EB8415D8
:1012D00001EB05159D60551EA54204D900EB0415D0
:1012E0001035DD6000E0D860641C9442E4D3024D08
:1012F000E86030BDD80400200090024021B142686F
:1013000022F00042426003E0426842F00042426044
:101310007047000030B10749896941F40051054A1E
:10132000916105E00349896921F40051014A916105
:10133000704700000090024030B500240F4D286037
:1013400000BF15E000EB04134FF480151D60C4EBE3
:10135000441505EB841501EB05159D60551EA5424E
:1013600004D900EB04151035DD6000E0D860641C82
:101370009442E7D3024D286130BD0000D404002020
:101380000090024010B50121880301F057FA0021B6
:101390004FF4804001F052FA10BD0021014600E0F8
:1013A000491E0029FCD170470348806940F4801031
:1013B00001498861704700000090024001480068C0
:1013C00080687047D404002001460868C0F30D40CF
:1013D0007047000000B500220F480068006810F058
:1013E000004F16D10C480068006810F4004F10D16F
:1013F00009480068006810F4807F0AD00648006839
:10140000006810F4007F04D003480068FFF7DCFF99
:101410000246104600BD0000D80400200020044908
:10142000096811F0010F01D0012000E00020704791
:101430000090024010B501E001F0FCFAFFF7CAFF8E
:101440000028F9D14020FFF709FF4FF48030FFF763
:1014500005FF10BD2DE9F04786B004460D46002675
:101460000027B046DFF82092B2468848076927F087
:101470001C0701A801F012FADDF8089084488145A4
:1014800005D38448814502D247F0080709E0814826
:10149000814505D37C48814502D247F00C0700E026
:1014A00000BF7A4807614FF400420021284600F04F
:1014B0008FFA18B9002006B0BDE8F0877648FFF72C
:1014C0006CFF2068002848D000BF0AF1010A012102
:1014D000284600F029F910F0040F02D16F48824528
:1014E000F3D36E48824501D10020E4E74FF0000AB3
:1014F0004FF480520021284600F06AFA08B9002013
:10150000D9E700BF0AF1010A0121284600F00CF9D1
:1015100010F0200F02D161488245F3D35F48824525
:1015200001D10020C7E74FF0000A1021284600F043
:10153000FBF8064616F0040F03D04FF4006020625B
:1015400001E00020206216F0020F02D0002060614E
:1015500016E04FF48040606112E0206AC0F3CF00D3
:101560006169C1F34F0140EA01020021284600F001
:101570002FFA08B900209EE76FF07F40FFF70DFFBC
:101580004248076846480740D4E901010843E1683A
:1015900008432169084361690843A1690843E16977
:1015A0000843216A0843616A0843A16A0843E16A63
:1015B0000843216B0843616B0843074333480760C6
:1015C000D4E90E010843216C0843616C0843A16C07
:1015D0000843E16C0843216D0843616D08432B49C2
:1015E0004860A06D8860E06DC860084687694FF666
:1015F00041700740D4E9181040EA0140A16E084349
:10160000E16E0843216F0843616F084307431F4899
:101610008761D4E91E0108431C49C86121488769D4
:1016200021480740D4E920010843D4F88810084332
:10163000D4F88C100843D4F890100843D4F89410D0
:101640000843D4F898100843D4F89C100843D4F801
:10165000A0100843074313488761D4E929010843D0
:10166000D4F8AC100843D4F8B0100843D4F8B41040
:1016700040EA8100D4F8B810084340F4000009495A
:101680000860012017E700000087930300800240F4
:10169000002D3101C00E1602FFFF0F00FFFF0400F6
:1016A0000F8120FF00900240233FDEF810B50B7938
:1016B0004C7943EA0422094B03441A64CB781B0695
:1016C0008C7843EA04434C7843EA04230C7843EAD9
:1016D0000402024B03445A6410BD00000080024023
:1016E00030B10749096841F00401054A116005E07D
:1016F0000349096821F00401014A116070470000A4
:101700000080024030B10749096841F00801054AEC
:10171000116005E00349096821F00801014A1160E0
:10172000704700000080024010B5024600230024EC
:101730001348036903F01C034FF4784000EAC22009
:1017400003434FF4F86000EA8110034323F00203DF
:1017500043F001030A48036100BF641C08480369A1
:1017600013F0010F02D007488442F6D305488442A3
:1017700001D1002010BD0248406980B2FAE70000A4
:1017800000800240FFFF040010B50548006830B13A
:1017900000F056FD024800210A460B460EC010BD5F
:1017A000BCC000201EB500216C46002213469446A2
:1017B00084E80C10214A1268126812F0004F10D011
:1017C000002200921E4A526912F0800F04D080223B
:1017D0001B4B5A6100229A606A461CCA80E81C00B2
:1017E0001EBD164A1268126812F4004F16D1134A31
:1017F0001268126812F4807F10D0104A12681268C2
:1018000012F4007F0AD00D4A12681268C2F30D422A
:10181000111F0A4A12689268019200E000210091AB
:10182000064A12680292054A1268D268034B1A608F
:101830006A461CCA80E81C00D2E70000D8040020D9
:10184000009002400348006840F001000149086030
:10185000704700000090024000B50120FFF752FFE2
:10186000FFF7A2FD0120FFF73BFF0120FFF752FD2C
:101870000120FFF709FD00BD00210160416081608A
:10188000C160016141618161C16101624162816246
:10189000C162016341638163C1634021016420210E
:1018A000416400218164C164016541658165C16550
:1018B00001668021416600218166C166016741673A
:1018C0008167C1674FF08061C0F880104910C0F88F
:1018D00084104910C0F88810C910C0F88C1000217D
:1018E000C0F89010C0F89410C0F89810C0F89C1080
:1018F000C0F8A0104FF00071C0F8A4100021C0F88B
:10190000A8104FF40031C0F8AC104912C0F8B01064
:101910000021C0F8B410C0F8B810704770B5054683
:1019200024480068006810F0004F1DD000F0EAF86D
:10193000214801F01BFA022220492148FFF7FCFC54
:10194000042220492048FFF7B1FC002406E01E498C
:1019500001EB04100121FFF7D1FC641C042CF6DB21
:10196000FFF77AFF002070BDC5F30C00114909682C
:10197000486010480068006840F040500D49096810
:1019800008600C480068006840F000400949096898
:1019900008600E48406910F0040F04D004200B4981
:1019A00048610020486003480068C0680149086039
:1019B0000120D8E7D40400201A00002000AF002046
:1019C0002097002040970020E096002000900240E1
:1019D00030B50346002400251248046904F01C04B5
:1019E0004FF4784000EAC32004434FF4F86000EA63
:1019F0008110044344F0020444F0010409484261A8
:101A0000046100BF6D1C0748046914F0010F02D087
:101A100005488542F6D30448854201D1002030BDF7
:101A20000120FCE700800240FFFF040010B5012008
:101A300004490870002004490880102000F006F8CE
:101A400010BD0000C0050020C2050020014908604B
:101A50007047000014040140002127498279002AC0
:101A600043D0264AD2F8002403689A43234BC3F894
:101A700000241A46D2F8042403689A4301F10403AF
:101A80001A60027911440A68036842EA03020A6094
:101A90001A4AD2F80824036822EA0302174BC3F853
:101AA00008241A46D2F80C24036822EA0302144BD5
:101AB0001A604279102A10D1104AD2F8082403681B
:101AC0001A430E4BC3F808241A46D2F80C240368B4
:101AD0001A430A4BC3F80C240DE00749427911441C
:101AE0000A6803681A430A6005E0027911440A682B
:101AF00003689A430A6070470004014000000140F7
:101B00000C04014000B5AFB0002000F0C9F8062079
:101B100000F08AFFFFF736FCFFF794FE00BFFFF7E7
:101B20007DFC0128FBD06846FFF7A6FE012000904F
:101B3000002007904FF400700A9000200B900E9048
:101B4000119013901490159020904FF000702190F8
:101B50000011239000202590269004202890C00595
:101B6000299040122A9080012B9040122C90400026
:101B70002E9001216846FFF76DFC01210248FFF716
:101B800073FB2FB000BD000040000100034670470A
:101B90000246704708B50420ADF8000003208DF818
:101BA000020018208DF803006946394800F09CF8BF
:101BB0000620ADF8000003208DF8020018208DF8F3
:101BC00003006946334800F08FF843F62010ADF863
:101BD000000003208DF8020018208DF803006946EC
:101BE0002D4800F081F801214FF0201000F004F999
:101BF0000B20ADF8000003208DF8020004208DF8C2
:101C000003006946224800F06FF84FF48060ADF899
:101C1000000003208DF8020004208DF803006946BF
:101C20001D4800F061F80820ADF8000003208DF891
:101C3000020004208DF803006946164800F054F8AD
:101C40004FF4F850ADF8000003208DF80200042096
:101C50008DF803006946114800F046F81020ADF8F1
:101C6000000000208DF8030069460A4800F03CF8A7
:101C70004FF48070ADF8000003208DF802001820AA
:101C80008DF803006946024800F02EF808BD0000F8
:101C90000008014000100140000C01400014014008
:101CA0000149086070470000DC00204230B5002286
:101CB0008B071C0F0F2303FA04F20A4B8C1053F806
:101CC000244094438D1043F825408C1053F8243061
:101CD0008C07240F00FA04F42343024C8D1044F8BF
:101CE000253030BD080001402DE9F04100220023DD
:101CF000002400250026002791F803C00CF00F02F5
:101D000091F803C01CF0100F03D091F802C04CEA08
:101D10000202B1F800C01CF0FF0F31D006680024A9
:101D20002BE04FF0010C0CFA04F5B1F800C00CEAFE
:101D30000503AB4220D1A5004FF00F0C0CFA05F7BC
:101D4000BE4302FA05FC4CEA060691F803C0BCF15A
:101D5000280F06D14FF0010C0CFA04FCC0F814C097
:101D60000AE091F803C0BCF1480F05D14FF0010C17
:101D70000CFA04FCC0F810C0641C082CD1D3066017
:101D8000B1F800C0BCF1FF0F34DD466800242EE03E
:101D900004F1080C4FF0010808FA0CF5B1F800C086
:101DA0000CEA0503AB4221D1A5004FF00F0C0CFA51
:101DB00005F7BE4302FA05FC4CEA060691F803C09B
:101DC000BCF1280F05D104F1080C08FA0CF8C0F892
:101DD000148091F803C0BCF1480F07D104F1080C3E
:101DE0004FF0010808FA0CF8C0F81080641C082CA9
:101DF000CED34660BDE8F081F0B500220023002478
:101E0000002500F00046B6F1004F02D11C4EF469E7
:101E100001E01B4E7468C0F3034582B200F4401623
:101E2000B6F5401F08D124F07064154E766826F090
:101E30007066134F7E6012E000F48016B6F5801FC6
:101E400006D1032606FA05F39C4344F0706406E0CD
:101E5000460D360102FA06F6B44344F0706421B12F
:101E6000460D360102FA06F6344300F00046B6F19C
:101E7000004F02D1024EF46101E0014E7460F0BDEA
:101E8000000001400246002093680B4201D001206F
:101E900000E0002070474161704701617047000019
:101EA0002DE9F04100244048006805883E4800685C
:101EB00046883D48006807793C49081908223CA13A
:101EC000FEF764F908340D20384908550A21601CD2
:101ED0000446364A115411460819122237A1FEF75A
:101EE00055F91234314908192A4639A101F0DCF9B3
:101EF0002044C4B20D202D4908550A21601CC0B2EF
:101F000004462A4A115411460819122231A1FEF73B
:101F10003DF904F11200C4B22449081932462CA13B
:101F200001F0C2F92044C4B20D20204908550A210D
:101F3000601CC0B204461D4A1154114608191422EF
:101F400029A1FEF723F904F11400C4B2AA1B174912
:101F500008191FA101F0A8F92044C4B20D201349AB
:101F600008550A21601CC0B20446104A115411469B
:101F700008190A2222A1FEF709F904F10A00C4B2E5
:101F80000A4908193A4612A101F08EF92044C4B258
:101F90000D20064908550A21601CC0B20446034AB8
:101FA00011541046BDE8F081E8040020D32B002036
:101FB000C4DAB4E6D0C5CFA200000000D7DCC4DA92
:101FC000B4E6CAFDA3A8D7D6BDDAA3A9A3BA000078
:101FD00025640000D2D1D3C3C4DAB4E6A3A8D7D60F
:101FE000BDDAA3A9A3BA0000CAA3D3E0C4DAB4E659
:101FF000CAFDA3A8D7D6BDDAA3A9A3BA00000000E2
:10200000CAB9D3C3B1EACABEA3BA000010B5FEF77D
:10201000A9F800BFFEE710B500F066F804F02CFB4D
:1020200010BD1FB50121084600F018FC40F60F64F2
:102030000121880700F06EFF4FF4A06000F06CF9FA
:102040001C208DF80C0003208DF80D0000208DF869
:102050000E0001208DF80F0003A800F01BF90121EC
:10206000880700F066FF00220121880700F081FF49
:1020700000214FF0804000F05FFFADF800400020ED
:10208000ADF80600ADF80200C820ADF804006946BE
:10209000C00600F07DFF0121880700F04AFF012201
:1020A0001146900700F065FF00214FF0804000F0DE
:1020B0006CFF0121880700F03FFF1FBD08B501211B
:1020C000402000F0DBFB0820ADF8000001208DF877
:1020D000020014208DF8030069460248FFF704FE51
:1020E00008BD0000001801401FB50121102000F0BC
:1020F000C5FB0121042000F0C1FB0121402000F0BC
:10210000BDFB0121084600F0B9FB0A208DF80C0048
:1021100000208DF80D008DF80E0001208DF80F00C5
:1021200003A800F0B7F80420ADF8080001208DF8EE
:102130000A0010208DF80B0002A91748FFF7D4FD04
:1021400004211548FFF7A9FE04211348FFF7A3FE59
:102150001020ADF8080003208DF80A0004208DF847
:102160000B0002A90D48FFF7BFFD04210220FFF775
:102170009DFD1020009000208DF804000C208DF8AB
:10218000050001208DF806006846FFF765FC102069
:10219000FFF75CFC1FBD000000180140001001406B
:1021A00000B587B005F0BEFE06F0C2F80E480690F6
:1021B0004FF6FF7005900D4804900D4800F0D6FDD5
:1021C0000C4B0D4A00218DE80E0004AB05AA06A9B0
:1021D0000A4806F057FA094806F0A4FA074806F03C
:1021E000F7FA07B000BD0000C0A8FE18C0A8001490
:1021F0001A000020214C00080D4D0008E0050020C9
:1022000010B50446FFF7C0FA0B480068201AFA28F8
:1022100005D3094804600BF095FA00F089FF0748E0
:102220000068201A41F28831884203D303480460D1
:1022300002F04AFC10BD0000000000200400002055
:1022400010B5024802F08EFD10BD0000E005002030
:1022500000BFFEE7704708B500214FF0006000F0B6
:1022600079F800214FF0006000F074F84FF4A0609E
:1022700000F052F83D208DF8000002208DF801009A
:1022800000208DF8020001208DF80300684600F060
:1022900001F808BD70B5002100230F22C4784CB3AB
:1022A0001A4C246804F4E064C4F5E0644FEA142195
:1022B000C1F1040322FA01F2447804FA03F18478AC
:1022C00004EA020444EA01014FEA0111104C0678C5
:1022D000A155047804F01F054FF0010404FA05F439
:1022E00005784FEA65154FF0E02606EB8505C5F841
:1022F000004109E0047804F01F040125A540054CC5
:102300000678761144F8265070BD00000CED00E010
:1023100000E400E080E100E002490143024A11606C
:10232000704700000000FA050CED00E010B5002831
:1023300007DA0A07130E054A00F00F04241F13558D
:1023400003E00A07130E024A135410BD18ED00E013
:1023500000E400E0024A0A400243024B1A60704760
:1023600080FFFF1F08ED00E0704700002DE9F047F7
:102370000446B8480068201AB0F57A7F7ED3B54885
:102380000460B5480068002834D0B4A1B44800F017
:102390007FF90646B3A1B24800F07AF90746B2A128
:1023A000AF4800F075F98046B0A1AD4800F070F973
:1023B000814643463A463146AD4806F0D3FE49468B
:1023C000AB4806F0FFFE0020A34908607020A94931
:1023D000087069204870642088706F20C8706B2076
:1023E00008710D2048710A2088710720A2490860F1
:1023F000BDE8F087FEF7C4FCA0490868A049FDF7D6
:10240000C8FF05464FF07E522946994806F0C0FDA8
:102410009C4908600920974908702846FEF724F96E
:10242000C0B20A2190FBF1F0303092494870284642
:10243000FEF71AF9C0B20A2190FBF1F201FB12007B
:1024400030308C4988702E20C87089783039894A9C
:102450005278303A02EB820201EB4200FEF7DDF8DF
:1024600082462946FDF75DFF054685492846FDF76A
:102470005BFF05462846FEF7F7F800E0E9E0C0B24A
:102480000A2190FBF1F030307A4908712846FEF7B6
:10249000EBF8C0B20A2190FBF1F201FB12003030E0
:1024A0007449487109208871754976480068FEF7BB
:1024B00055F940D272487349086008460068FEF733
:1024C000D3F800F0FF0A504600F066FC6D48006843
:1024D000FEF7CAF8C0B2642190FBF1F030306549D4
:1024E000C87168480068FEF7BFF8C0B2642190FB6D
:1024F000F1F201FB12000A2190FBF1F030305D494E
:10250000087260480068FEF7AFF8C0B2642190FB23
:10251000F1F201FB12000A2190FBF1F201FB120023
:102520003030544948720D2088720A20C8720C203D
:102530005149086083E0002152480068FEF704F921
:1025400040D200204F49086008460068FEF78CF82A
:1025500000F0FF0A504600F01FFC4A480068FEF7F2
:1025600083F8C0B2642190FBF1F030304149C8716A
:1025700044480068FEF778F8C0B2642190FBF1F29D
:1025800001FB12000A2190FBF1F03030394908724A
:102590003C480068FEF768F8C0B2642190FBF1F295
:1025A00001FB12000A2190FBF1F201FB1200303016
:1025B000304948720D2088720A20C8720C202E49BA
:1025C00008603CE02F480068FEF74EF800F0FF0A74
:1025D000504600F0E1FB2B480068FEF745F8C0B21A
:1025E000642190FBF1F030302249C8712548006821
:1025F000FEF73AF8C0B2642190FBF1F201FB120041
:102600000A2190FBF1F030301A4908721D48006829
:10261000FEF72AF8C0B2642190FBF1F201FB120030
:102620000A2190FBF1F201FB12003030114948728F
:102630000D2088720A20C8720C200F4908601248C9
:10264000007830B90121114800F076FC01200E49D4
:102650000870CDE6C8050020340000206B70000033
:102660001E0600206B6900006B64000073700000A0
:1026700034C200200A0C002044000020B0040020D6
:102680000000C842D0050020CC0500200008004012
:102690002DE9F04F99B004460D460026B246B346E8
:1026A00000200A9029462046FDF795FD0646B078A1
:1026B0003D287ED10027A5E0B01CC05D0BA9C85500
:1026C0000BA8C05D2E2839D1781E00F0FF094FF00D
:1026D0000008C24630E04046FDF7B9FF0B4602460F
:1026E000CDE908014AA003C806F0CEFDCDE90601F8
:1026F0000BA911F80910A1F13000FDF797FFCDE902
:102700000401DDE90623FDF784FECDE90201FDF7B2
:10271000FAFF51460190FDF7AFFD824608F1010036
:1027200000F0FF08A9F1010000F0FF090BA810F864
:1027300009003D2800D100E0CDE700BF0BA8C05D37
:102740002C285DD1781E00F0FF094FF00008C34629
:1027500055E04046FDF77BFF0B460246CDE90801F8
:102760002BA003C806F090FDCDE906010BA911F8D6
:102770000910A1F13000FDF759FFCDE90401DDE9B1
:102780000623FDF746FECDE90201FDF7BCFF5946E1
:102790000190FDF771FD8346A9F1010000F0FF09EA
:1027A00008F1010000F0FF080BA810F809002E281E
:1027B00000E02CE023D14046FDF749FF0B460246DE
:1027C000CDE9080112A003C806F05EFDCDE90601BF
:1027D0005846FDF786FFCDE90401DDE90623FDF744
:1027E00090FECDE90201FDF78EFF83465146584623
:1027F000FDF742FD0A900A9819B0BDE8F08FA8E7EE
:10280000781CC7B2322FFFF657AF0348F4E7F3E75F
:102810000000000000002440000080BF29B1064AEB
:1028200052690243044B5A6104E0034A52698243ED
:10283000014B5A61704700000010024029B1064A5E
:10284000926A0243044B9A6204E0034A926A82430A
:10285000014B9A62704700000010024029B1064AFD
:10286000D2690243044BDA6104E0034AD26982432D
:10287000014BDA61704700000010024029B1064A9E
:1028800092690243044B9A6104E0034A92698243CD
:10289000014B9A6170470000001002402DE9F041A1
:1028A00000210022002300240025002600278C465A
:1028B000DFF86481D8F8048008F00C0121B1042904
:1028C00007D0082959D109E0DFF85081C0F800800D
:1028D00058E0DFF84881C0F8008053E0DFF8388125
:1028E000D8F8048008F47012DFF82C81D8F804803E
:1028F00008F48033920C0D2A01D0921C00E00622CD
:1029000033B9DFF81C8102FB08F8C0F8008033E01F
:10291000DFF80481D8F82C8008F48035DFF8F880DF
:10292000D8F82C8008F00F0808F1010645B9DFF847
:10293000EC80B8FBF6F808FB02F8C0F800801BE05A
:10294000DFF8D480D8F82C80C8F3031808F1010709
:10295000DFF8C480D8F82C80C8F3032808F1020CF3
:10296000DFF8B880B8FBF7F808FB0CF8B8FBF6F80E
:1029700008FB02F8C0F8008004E0DFF8A080C0F88F
:10298000008000BF00BFDFF89080D8F8048008F016
:10299000F0010909DFF88C8018F80140D0F80080B8
:1029A00028FA04F8C0F80480DFF86C80D8F80480B6
:1029B00008F4E061090ADFF86C8018F80140D0F8EB
:1029C000048028FA04F8C0F80880DFF84C80D8F8B2
:1029D000048008F46051C90ADFF8488018F8014003
:1029E000D0F8048028FA04F8C0F80C80DFF82880BA
:1029F000D8F8048008F44041890BDFF8288008F1FA
:102A0000100818F80140D0F80C80B8FBF4F8C0F8B2
:102A10001080BDE8F08100000010024000127A0032
:102A200000093D00C00400200149C8717047000042
:102A3000001002400EB51148FEF7B4FE0F4968467B
:102A40000EC90EC00D48006840F2DC51884205D81E
:102A50000A48026841680A48FDF798FB4FF00040B9
:102A60000649896808600748406910F0800F04D063
:102A7000802004494861002088600EBDBCC0002051
:102A8000E0BA00200090024021B1028842F04002EA
:102A9000028004E002884FF6BF731A40028070473C
:102AA00000B587B001210520FFF7E8FE01210803EA
:102AB000FFF7E4FEE020ADF8180003208DF81A00BF
:102AC00018208DF81B0006A91A48FFF70DF94FF4DE
:102AD0008070ADF8180003208DF81A0010208DF8D2
:102AE0001B0006A91348FFF7FFF80020ADF804000B
:102AF0004FF48270ADF806000020ADF80800ADF884
:102B00000A00ADF80C004FF40070ADF80E00002084
:102B1000ADF81000ADF812000720ADF8140001A9BF
:102B2000054800F019F801210348FFF7ADFF07B091
:102B300000BD0000000801400030014002460020B6
:102B400013890B4201D0012000E0002070470146AC
:102B5000888970478181704710B50022028802F48D
:102B600041520B884C8823438C882343CC882343D1
:102B70000C8923434C8923438C892343CC892343E9
:102B80001A430280838B4FF2FF74234083830B8AA6
:102B9000038210BD7047000070B5054616480078E6
:102BA00010BB16480068F8B101231448006882B2CF
:102BB0001349144800680AF003FE044600200F4938
:102BC000086024B90F48006809F068F812E00E4860
:102BD0000078401C0C49087008460078322809DB50
:102BE0000020087000BF05E00448006810B1002014
:102BF0000249086070BD0000200000204400002051
:102C00000A0C0020540400204800002008B50121CF
:102C10004020FFF733FE0820ADF8000001208DF8BA
:102C2000020048208DF8030069460248FFF75CF86F
:102C300008BD00000018014008B501214020FFF741
:102C40001DFE0820ADF8000001208DF802001420C0
:102C50008DF8030069460248FFF746F808BD0000FA
:102C60000018014010B500F001F810BD002000214F
:102C70003A4A126842F48032384B1A6000BF374A31
:102C8000126802F40031401C11B9B0F5A06FF6D102
:102C9000324A126812F4003F01D0012100E0002105
:102CA00001295AD12E4A126842F010022C4B1A60A8
:102CB0001A46126822F003021A601A46126842F09D
:102CC00002021A60254A5268244B5A601A4652681A
:102CD0005A601A46526842F480625A601A46D26AB2
:102CE000204B1A401D4BDA621A46D26A1E4B1A4319
:102CF0001A4BDA621A46126842F080621A6000BF0C
:102D0000164A126812F0006FFAD0144A526822F480
:102D10007C12124B5A601A46526842F4E8125A600A
:102D20001A46126842F080721A6000BF0B4A12689D
:102D300012F0007FFAD0094A526822F00302074BD2
:102D40005A601A46526842F002025A6000BF034AB3
:102D5000526802F00C02082AF9D1704700100240B4
:102D60000020024000F0FEFF4406010010B50446BA
:102D700020780849087060784870A0788870E078FA
:102D8000C870207908716079487121460020FEF7EB
:102D90008DFC10BD78050020C0F16401014A11804E
:102DA00070470000C405002010B500F0EFF910BD19
:102DB00010B51648006840F0010014490860084644
:102DC00040681349084011494860084600681149A5
:102DD00008400E4908600846006820F4802008601A
:102DE0000846406820F4FE0048600846006820F06D
:102DF000A05008604FF47F0088600020C862FFF791
:102E000031FF4FF000600449086010BD001002401F
:102E10000000FFF0FFFFF6FE08ED00E010B586B001
:102E2000FFF7C6FF01214FF4E030FFF7F7FC012167
:102E300040F27D20FFF722FDFFF70DFAFEF7AAFE14
:102E4000FEF760FE01A8FFF729FD64210198B0FBA1
:102E5000F1F4B4F1807F00D311E024F07F40401EF4
:102E60004FF0E02148610F214FF0FF30FFF75EFA8D
:102E700000204FF0E02188610720086100BF012198
:102E8000881EFFF753FA06B010BD000010B50121EF
:102E9000880700F05DF860B10121880700F046F86E
:102EA0000121880700F045F8024800680A3001490E
:102EB000086010BDB404002010B50121074800F0DF
:102EC00047F848B10121054800F030F801210348D6
:102ED00000F02FF806F0B4FF10BD00000004004021
:102EE00010B50121094800F033F870B101210748FD
:102EF00000F01CF80121054800F01BF80448008888
:102F0000401C03490880FDF721FF10BD0008004068
:102F1000C205002021B1028842F08002028004E054
:102F200002884FF67F731A4002807047CA430282BC
:102F30007047CA430282704721B1028842F0010201
:102F4000028004E002884FF6FE731A400280704748
:102F500030B50246002000230024158A05EA01034B
:102F6000958905EA010413B10CB1012000E00020AD
:102F700030BD10B51AB183890B43838104E0838986
:102F8000CC43A4B22340838110BD818470470000EC
:102F9000002202881D4B98420ED01D4B98420BD048
:102FA000B0F1804F08D01B4B984205D01A4B984285
:102FB00002D01A4B984204D14FF68F731A404B88B7
:102FC0001A43174B984207D0164B984204D04FF63D
:102FD000FF431A40CB881A4302808B8883850B8875
:102FE00003850A4B98420BD0094B984208D00E4BF0
:102FF000984205D00D4B984202D00D4B984201D11A
:103000000B7A03860123838270470000002C014065
:10301000003401400004004000080040000C004063
:1030200000100040001400400040014000440140F6
:103030000048014010B504460F480068201A41F2CC
:103040008831884217D30C4804600C48007830B1AE
:103050000C220BA10120FEF799FD07F079FC0B482B
:10306000007840B90120094908700C2208A1FEF738
:103070008DFD0BF00BF910BD2C000020200000206E
:103080005443505F52657472790D0A00210000208C
:103090005544505F52657472790D0A0070B505464B
:1030A0000C461646207A40F0080020724FF4FA7061
:1030B000C4F88C00C4F890000220C4F894000549BC
:1030C000204609F069FF0449204608F0F3F8002083
:1030D00070BD0000DD300008C33C00082DE9F04160
:1030E00007460E4614461D461DB914B1204605F08C
:1030F0004DFE05B90CB1002D02DA304607F0E6FDB1
:10310000BDE8F08110B5044607480068201AB0F504
:10311000FA6F07D304480460FDF732FE212103480B
:10312000FEF736FD10BD0000A00400207C13002037
:1031300010B510480078D8B10F480078401C0E49EF
:10314000087008460078552812DD00230B480288D5
:103150000B490C4800680AF083FF0B4801680948D6
:1031600000680AF007FE0020024908700249087052
:1031700010BD00007C0400207D0400208C04002091
:1031800088040020840400208004002070474FF44D
:10319000FA7000E0401E0028FCD1704710B50421F1
:1031A0000448FEF778FEFFF7F2FF04210148FEF71E
:1031B00074FE10BD0018014010B540F225510B48B7
:1031C00000F025F8012806D140F22551074800F00B
:1031D0000FF806F03DFE40F22771044800F017F8A2
:1031E000012801D106F03CFE10BD00000044004063
:1031F00010B500220023A1F510646A3C00D100BF85
:103200000A1201249440A3B2DC43048010BD70B5BF
:1032100002460023002400250020A1F510666A3E26
:1032200000D100BFC1F3421501F01F04012606FAC8
:1032300004F4012D02D19689344006E0022D02D11A
:10324000168A344001E0968A34400B12012606FAB1
:1032500003F31688334014B10BB1012000E00020C5
:1032600070BD00BFFEE7000010B5044624B1082180
:103270000448FEF712FE03E008210248FEF70BFEA9
:1032800010BD0000001801400FB410B503A9044B95
:10329000044A029800F056F910BC5DF814FB0000D7
:1032A000795C0008D80500200FB410B504A9074BBD
:1032B00002AA039800F046F9044602A9002000F093
:1032C000FBFC204610BC5DF814FB0000B93C000874
:1032D0002DE9F0414C1E054600EBC4010868164676
:1032E00049681F4634F006020DD03B463246FDF7D2
:1032F00090F8641E05EBC40253681268FDF736FBB4
:1033000034F00602F1D1022C25D0042C13D0062C67
:1033100018BFBDE8F0813B463246FDF77AF8EB6A0C
:10332000AA6AFDF723FB3B463246FDF772F86B6A4B
:103330002A6AFDF71BFB3B463246FDF76AF8EB694C
:10334000AA69FDF713FB3B463246FDF762F86B694D
:103350002A69FDF70BFB3B463246FDF75AF8EB684E
:10336000AA68FDF703FB3B463246FDF752F86B684F
:103370002A68BDE8F041FDF7F9BA02E008C8121F5B
:1033800008C1002AFAD170477047002001E001C14E
:10339000121F002AFBD170470149086070470000E6
:1033A000DC0500202DE9FF5F84B08B46DDE90601D6
:1033B00000234FEA1154DDE912895940584008436F
:1033C00010D1012456A3B9F1010F02D16FEA08010F
:1033D00000E000210498C0E90249C0E9003108B0CA
:1033E000BDE8F09FA4F2FF3444F610504443251486
:1033F000B9F1010F404601D1464201E02E1A761C78
:1034000048A003C87442CDE9000148A0D0E900A754
:10341000002E14DB344612E0E00707D0DDE900237C
:1034200039465046FCF7F5FF82460F46DDE900239A
:1034300019461046FCF7EDFF6410CDE90001002CA1
:10344000EAD1DDE90601002E3B46524602DAFCF7DE
:10345000E0FF01E0FDF755F836A20CCA04460E461F
:10346000FDF76CFB03D84FF0FF36374609E033A079
:103470000CC831462046FDF779FAFDF746FB0646B3
:103480000F4610240FE0002C14DB00230A223946DB
:103490003046FDF783F902F130020BF804200646AE
:1034A0000F46A4F10104002387EA030186EA030022
:1034B0000843E8D1641C0BEB0400C4F1110A03902B
:1034C000B9F1010F10D1002387EA030186EA030056
:1034D000084304D1AAEB0805A5F1010518E04FF057
:1034E00011084FF0000983E70023012487EA030154
:1034F00086EA0300084301D1C24502DD00246D1CA9
:1035000004E003DA4FF00004A5F10105002CEAD035
:103510000498C0E902A94560039901605FE70000D3
:103520003000000000000000000024400000000007
:103530000000F03F000000000000F0430000000029
:103540000000E03F2DE9FF4F99B006469A460F462E
:10355000002573E3252879D10024761CFF4AA04674
:10356000012117943378203B01FA03F0104202D076
:103570000443761CF6E730782A2816D101CF17903D
:10358000002803DA404244F40054179044F0020447
:10359000761C11E0179844F0020400EB800002EB67
:1035A00040000844761C179001E06FF02F0231783C
:1035B000A1F130000928EDD930782E2818D116F85D
:1035C000010F44F004042A280BD157F8048B761C11
:1035D0000EE008EB880002EB400001EB0008761CCF
:1035E00001E06FF02F023178A1F130000928F0D905
:1035F00030786C280ED008DC4C2816D068280CD007
:103600006A2813D144F400140FE074280DD07A28EE
:103610000CD10AE044F4801401E044F440147178C1
:10362000814202D1761C04F58014761C307866281D
:103630000BD013DC582827D009DC002873D045288C
:10364000F6D04628F4D0472885D1A1E1FEE26328D0
:1036500033D0642878D06528F6D199E1702872D0EB
:103660000CDC6728F1D069286ED06E280ED06F2848
:10367000EAD108210022CDE91212AEE0732826D04B
:10368000752871D07828DFD11021F3E7C4F30250F8
:10369000022804D13868E917C0E900510AE003287C
:1036A00002D13868058005E00428386801D105702A
:1036B00000E0056007F10407BFE201CF8DF8540078
:1036C00000208DF855000DF1540B012003E057F850
:1036D00004BB4FF0FF3061074FF000010CD501E053
:1036E00009F101018946414510DA8145F8DB1BF8F3
:1036F00009100029F4D109E001E009F1010189462E
:103700008142FADB1BF809100029F6D117985346BD
:10371000A0EB0908214640461B9A00F0B6FA28445F
:1037200000EB090506E08DE20EE01BF8010B5246A6
:103730001B999047B9F101008146F6D253462146C4
:1037400040461B9A20E140E00A200021CDE9120109
:10375000C4F30250022808D1FF1D27F00707D7E95C
:1037600000910837159112E02DE002CFCA17894663
:103770001592032804D10FFA89F1CA1789461592C8
:10378000042804D14FFA89F0C1178146159100230E
:103790001599B9EB0300994108DA1599D9F1000997
:1037A00061EB41014FF02D00159102E0200504D599
:1037B0002B208DF82000012003E0E00701D020201D
:1037C000F7E7834657E00A2154E710210022CDE9AC
:1037D000121244F004044FF00808C4F30251022905
:1037E00007D1FF1D27F00707D7E900920837159288
:1037F0000BE0002357F8049B1593032901D11FFA0E
:1038000089F9042901D109F0FF094FF0000B2107C4
:1038100031D5702804D140208DF82000012013E01C
:10382000DDE912011022504008430ED10023159902
:1038300089EA03005940084307D030208DF8200062
:1038400030788DF8210002208346DDE9120108223C
:10385000504008430FD10023159989EA03005940CD
:10386000084301D1600706D530208DF820004FF0C5
:10387000010BA8F10108317839A0582900D03DA0EA
:10388000079012A809900EE0DDE912234846159929
:10389000FCF784FF079B81469B5C099AA2F1010219
:1038A0000992137015910023159989EA0300594074
:1038B0000843E9D109990AA8A0EB010000F1200909
:1038C000600702D524F4803401E04FF001080020A5
:1038D000C84501DDA8EB09001690484417995844E3
:1038E000A1EB00001790E00306D4534621461B9A33
:1038F000179800F0CAF90544002008E008A810F85D
:10390000080052461B9990476D1C08F10100804643
:103910005845F3DBE0030CD5534621461B9A179814
:1039200000F0B3F9054404E0302052461B9990475B
:103930006D1C1698411E16910028F5DC08E00998C8
:1039400009990078491C099152461B9990476D1CB2
:10395000B9F10000A9F10109F1DC69E109280100D0
:1039600030313233343536373839414243444546B5
:103970000000000030313233343536373839616277
:10398000636465660000000000F06CF9054454E1D2
:10399000600701D44FF0060807F1070727F0070773
:1039A000D7E90001CDE902014FF0000001F000412C
:1039B00081EA000180EA000007F10807084301D00E
:1039C000A5A007E0A5A0210504D4A5A0E10701D189
:1039D000AFF264000790039820F00041307865282A
:1039E00028D006DC452825D046283AD0472858D18B
:1039F00003E0662835D06728F9D1B8F1010F01DA64
:103A00004FF0010800231122B8F1110F00DC4246EB
:103A1000CDE900230B460AA912A8029AFFF7C2FCBF
:103A20004FF0000BC146200748D4149949453CDAB1
:103A3000084639E000231122B8F1110F01DA08F12C
:103A40000102CDE900230B460AA912A8029AFFF74A
:103A5000A9FC012005904FF0000B08F10109139813
:103A60004DE00123CDE900834FF0004004900B4668
:103A70000AA912A8029AFFF795FCDDE914904FF00D
:103A8000000B20B9139908F1010001EB0009B8EB14
:103A9000090003D4C0F1FF3B08F10109A9EB0800BC
:103AA00005902DE0A9F101008146B9F1010F05DD76
:103AB0001299A9F10100085C3028F3D0139941450F
:103AC00003DA084611F1040F03DA012005900846D5
:103AD00015E0002804DC13998344A9EB010005E0FC
:103AE000401C484503DD139800F1010081461399FD
:103AF000A1EB0B0000F1010005904FF00040049095
:103B0000200705D40599494502DB4FF0FF300590A9
:103B100000218DF8271004980DF12708B0F1004F0F
:103B200029D0022001902B200090049800280EDA62
:103B3000404204902D20009009E00A210498FCF7EF
:103B400017FE0490A8F10100303180460170019801
:103B5000411E01910028F0DC04980028EDD1A8F165
:103B60000100009900F801193178804601F0200128
:103B700041F04501017008A8A0EB080000F1070022
:103B800006900798007800B101200599484400EBA1
:103B9000E170069908441799A1EB0000A0F101001B
:103BA0001790E00306D4534621461B9A179800F05D
:103BB0006CF805440798007820B152461B9990474D
:103BC00005F10105E00322D5534621461B9A1798BB
:103BD00000F05BF805441AE0BBF1000F07DB149816
:103BE000584504DD12981B9910F80B0001E01B9951
:103BF00030205246904705986D1C401E0BF1010B7A
:103C0000059004D12E2052461B9990476D1CB9F1A6
:103C10000000A9F10109DFDC05E018F8010B5246AC
:103C20001B9990476D1C0698411E06910028F4DCF4
:103C3000534621461B9A1798A6E6761C3078002832
:103C40007FF488AC28461DB0BDE8F08F52461B9922
:103C500090476D1CF1E700002D0000002B000000D4
:103C6000200000002DE9F0410446002517461E46BD
:103C7000880407D504E039462020B04705F1010546
:103C8000641EF8D52846BDE8F0812DE9F0410446D0
:103C90000025302790461E46C80300D420278804FC
:103CA00007D404E041463846B04705F10105641EDB
:103CB000F8D52846BDE8F0810A68531C0B601070E7
:103CC00070477047F0B502460020002323E0D75C20
:103CD00000241AE0C0F38015FE0995EA060C08D00E
:103CE00080F004004FEA406C4FEA1C6040F0010095
:103CF00003E04FEA406C4FEA1C6004F1010C0CF049
:103D0000FF044FEA476C4FEA1C67082CE2DB03F123
:103D1000010C0CF0FF038B42D9DBF0BDF0B587B08E
:103D200004460E46324601A9204602F030F901222F
:103D300001A9204601F0BAF818B14FF0FF3007B0E2
:103D4000F0BD01A9204602F0ECF80746012201A9C6
:103D5000204601F0ABF810B14FF0FF30EFE73A46E4
:103D60003146204601F051F8054603E0204603990C
:103D700001F08AFF681C0546024601A9204601F0B1
:103D800067F80028F2D00020D9E770B506460C4647
:103D900015460B222146284604F065F80020E07203
:103DA00020736073E0812082208A60820020A082DC
:103DB000E089E082208A208300206083E06170BD7A
:103DC0002DE9F04104460E46154629680222206876
:103DD00004F05EFD0746287907EB401120223046AB
:103DE00004F041F83946206804F08EFDBDE8F0810A
:103DF000F0B589B004460D46174600262AE004EBCC
:103E00004611202201A8FCF7C1F99DF80F0000F02F
:103E10000F000F281CD00B22294601A806F046FCF3
:103E2000B0B907B13E7117B19DF80F007871BDF8B8
:103E30001E00BDF8181010EB014002D1012009B09E
:103E4000F0BDBDF81E00BDF8181000EB0140F6E70C
:103E5000701CC6B2102ED2DB0020F0E770B588B01F
:103E600004460D46002619E004EB46112022684660
:103E7000FCF78CF99DF80B0000F00F000F280BD019
:103E80009DF8000018B19DF80000E52804D105B1A7
:103E90002E71012008B070BD701CC6B2102EE3DB7D
:103EA0000020F7E72DE9F04104460D4617461E466F
:103EB00016B1012E0CD106E03A4629462046FFF7FE
:103EC00097FFBDE8F08139462046FFF7C7FFF8E7C6
:103ED0000020F6E72DE9F84F04460D4616461F462A
:103EE000DDF828800020009081462AE029462046FF
:103EF00001F0EDFE00EB090B01225946206804F0A9
:103F0000C7FC009043463A4631460098FFF7CAFF87
:103F10005FEA000A0DD02FB12946204601F0D7FEF6
:103F2000484438602068009904F0EEFC5046BDE833
:103F3000F88F2068009904F0E7FC09F1010000F017
:103F4000FF09A0794845D1DC0020F0E72DE9F047D2
:103F500088B004460D4616461F46DDF840804FF0F7
:103F600000090596049600208DF80800069003903D
:103F7000012E08D843463A462946204600F01CF850
:103F800008B0BDE8F0870CE0CDF800803B462A463B
:103F900020460499FFF79EFF5FEA000A01D05046D1
:103FA000EEE74A4609F1010902A9204600F050FF58
:103FB0000028E9D00020E3E72DE9F04704460D464C
:103FC00016461F464FF0000994F83C00012806D021
:103FD00094F83C00022802D00020BDE8F087D4F815
:103FE0002C801DE001224146206804F051FC8146EE
:103FF0003B46324629464846FFF754FF5FEA000A2F
:1040000008D00EB1C6F800804946206804F07CFC58
:104010005046E2E74946206804F076FC08F10108C2
:10402000A089C11700EBD161E26A02EB6111414541
:10403000D8D84946206804F067FC0020CDE7FEB5DB
:1040400004460F4600260B21684603F003FF0B21B0
:10405000384603F0FFFE254620782F2800D16D1C3E
:1040600006E00B223946684603F0FDFE701CC6B21E
:104070006946284601F01CFD0500F2D10EB1012071
:10408000FEBD0020FCE72DE9F04104460E46154632
:1040900029680122206804F0FBFB0746287907EB1A
:1040A000401120223046FCF771F83946206804F0B0
:1040B0002BFCBDE8F0812DE9F04104460D46164683
:1040C00029680222206804F0E3FB0746287907EB01
:1040D0004010C6613946206804F016FCBDE8F08146
:1040E0002DE9F04104460D46164629680222206853
:1040F00004F0CEFB0746300C297907EB411188828A
:10410000297907EB41114E833946206804F0FCFB06
:10411000BDE8F0812DE9F04104460E4615462968B8
:104120000222206804F0B4FB0746287907EB40110F
:104130002022304603F097FE3946206804F0E4FB65
:104140000020BDE8F08170B505460C462C600020CB
:104150002871284600F001F870BD70B504460522AC
:104160000021206802F0EFFC064600250CE04FF429
:10417000DF7303EB051204F1080000EB0511304674
:1041800000F006FE681CC5B2042DF0DB3146206845
:1041900002F07CFE70BD70B504460D4629462046EF
:1041A00002F059F980BB00222146201D02F0A3FD38
:1041B000211D04F50970FFF7C6FF04F5097104F528
:1041C0001B7004F077FB94F97002401C10D10B2196
:1041D0004FF40C7001550021C4F834124FF40E70E6
:1041E0002168015104F5097104F51B7004F062FBAC
:1041F00004F51B7104F51D7001F0D8FE10B16FF0CD
:10420000010070BD0020FCE7FFE74FF0FF30F8E74A
:104210002DE9FC4704460D46164600BF1CB900BFF9
:1042200000BFBDE8FC8700BF70892A280EDA574816
:10423000408C401C81B255484184C08B401C81B2E7
:104240005248C183304604F0A1FDEAE7D6F8048065
:1042500008F10E073888B0F5807F08D13879062834
:1042600005D17879042802D1788808280ED04748EB
:10427000008D401C81B245480185C08B401C81B235
:104280004248C183304604F081FDCAE73F48408B75
:10429000401C81B23D484183042207F10E0101A870
:1042A000FBF774FF042207F118016846FBF76EFF65
:1042B000201D01D0606810B94FF0000908E0009897
:1042C0006168884201D1012000E0002000F0FF0970
:1042D000B9F1000F01D0012000E00220C3B207F1C4
:1042E000080201A9204600F035FCF888B0F5807F6F
:1042F00003D0B0F5007F3DD13BE0B9F1000F36D0DF
:10430000022003F03CFDF880042207F10E0107F1C2
:104310001800FBF73BFF0422211D07F10E00FBF7FD
:1043200035FF00BF94F82600062801D000BF00BF6B
:1043300000BF062207F1080107F11200FBF726FF74
:10434000062207F108014046FBF720FF0622294616
:1043500007F10800FBF71AFF0622294608F10600BC
:10436000FBF714FF31462046A269904700E000BFEA
:1043700007E006E00548808D401C81B20348818536
:1043800000BF00BF304604F001FD4AE7FC94002066
:104390002DE9FC5F04460D460A260A27B0464FF079
:1043A00000094FF0000A00200190B346009000BFC2
:1043B00067E009EB8900624A02EB8000817CB8F17A
:1043C0000A0F03D111B94FFA89F856E0002954D0E9
:1043D00000BF012903D0022901DA00BF00BF00BFDE
:1043E00064B109EB8902564B03EB820220685268E4
:1043F000904203D14FFA89F0BDE8FC9F012928D1F2
:1044000009EB89004E4A52F8200088B109EB890077
:1044100002EB8000C07C009A90422EDB4FFA89FBB1
:1044200009EB8900464A02EB8000C07C009024E042
:1044300009EB8900424A02EB8000C07C50451CDB3E
:104440004FFA89F609EB890002EB800090F813A07F
:1044500013E0022911DB09EB8900394A02EB8000E5
:10446000C27C0198824208DB4FFA89F709EB890088
:10447000334A02EB8000C07C019009F1010000F09A
:10448000FF09B9F10A0F94DB15F0020F05D1B8F15D
:104490000A0F05D115F0010F02D14FF0FF30ABE745
:1044A000B8F10A0F02DA08F0FF0925E00A2F0BDA4B
:1044B00007F0FF0900BF09EB8900214951F82000EE
:1044C00008B100BF00BF0DE00A2E02DA06F0FF09B6
:1044D00008E0BBF10A0F02DA0BF0FF0902E04FF02F
:1044E000FF3089E700BFB9F10A0F01DB00BF00BF51
:1044F00000BF484600F026F800BFB9F10A0F01DB03
:1045000000BF00BF00BF00BF09EB89000C4901EBF1
:104510008000807C08B100BF00BF00BF34B109EB50
:104520008901074A02EB810120684860002009EBFD
:104530008901034A02EB8101C8744FFA89F05BE7F5
:104540001896002010B5044604EB84000C4951F87D
:10455000200060B104EB8401094A52F8210004F004
:1045600015FC002004EB8401054A42F821000020DC
:1045700004EB8401024A02EB8101887410BD000043
:10458000189600202DE9FC4704460D461646B04615
:1045900000BF0CB900BF00BF00BF00BF0DB900BF16
:1045A00000BF00BF00BF0EB900BF00BF00BF0E219B
:1045B000284604F048FC40B14D484089401C4C4915
:1045C00048816FF00100BDE8FC872146306802F0A9
:1045D0000DFD08B1474F83E0306800F0F000E0289F
:1045E00015D101208DF8000000208DF801005E201B
:1045F0008DF80200707800F07F008DF80300B0782D
:104600008DF80400F0788DF805006F4667E030689B
:10461000A1680840D4E901121140884210D03068E6
:1046200080B2A0F57E41A9390AD014F10C0004D063
:10463000E06810B104F10C0802E06FF00300C2E77B
:104640002D48007800EB80002C4901EB8000807C35
:10465000022818DB2849097801EB8101274A02EB7F
:104660008101D8F80000496888420CD12048C08DEB
:10467000401C81B21E48C1851F4802782946204649
:1046800000F03EF89FE74FF000091FE009EB8900BA
:104690001A4901EB8000807C022813DB09EB8901B9
:1046A000164A02EB8101D8F800004968884209D116
:1046B000114981F8009009F0FF022946204600F0D8
:1046C0001FF880E709F101004FFA80F9B9F10A0FEC
:1046D000DCDB2A464146204600F052F873E700BF73
:1046E0003B4604F127022946204600F0CBF96AE751
:1046F000FC940020ACE800086A0500201896002011
:1047000070B504460D46164600BF06EB86001B49F1
:1047100001EB8000807C022801DA00BF00BF00BFEF
:1047200006EB8600154901EB8000807C022817D13A
:1047300006EB860001EB8000C07CE42810DB06EB72
:1047400086000A4602EB8000011D204600F084F935
:1047500030B9032006EB8601084A02EB8101887418
:1047600006EB8600054901EB800000F10C0304F123
:1047700027022946204600F085F970BD18960020D2
:104780002DE9F05F04460D46164604F127074FF069
:10479000FF382146286802F029FC38B9286800F063
:1047A000F000E02802D00DB1286818B96FF00D00B4
:1047B000BDE8F09F01212846FFF7EAFD8146B9F1E7
:1047C000000F08DA2EB15E48808C401C81B25C4834
:1047D00081844846ECE709EB89005A4901EB8000E7
:1047E000807C30B9012009EB8901564A02EB810136
:1047F000887400BF09EB8900524901EB8000807C7E
:10480000012808D009EB890001EB8000807C022898
:1048100001DA00BF00BF00BF09EB8900494901EB85
:104820008000807C012800D03EB92946204600F057
:1048300013F980460EB94046BAE700BF0EB900BF73
:1048400000BF00BF09EB89003E4901EB8000807C7E
:10485000022810DB3C4981F8009009EB89003949B6
:1048600001EB800000F10C033A463146204600F08F
:1048700009F9804662E009EB8900324901EB8000CA
:10488000807C01285AD14FF0000BB24615E000BFE2
:10489000BAF80A00BAF80810884204D1DAF8000021
:1048A00008B100BF00BF00BF9AF80C00012802D079
:1048B0004FF0010B04E0DAF800A0BAF1000FE6D1E6
:1048C00000BFBBF1000F14D0BAF80810002203207B
:1048D00004F023F88246BAF1000F0ED0314650465C
:1048E00004F095F948B1504604F050FA4FF0000A30
:1048F00003E0B246504604F045FBBAF1000F14D075
:1049000009EB89000F4951F8200030B109EB89010A
:104910000C4A52F8210004F039FA09EB89000949E0
:1049200041F820A04FF0000807E00548808C401CAB
:1049300081B2034881844FF0FF3800BF404637E71B
:10494000FC940020189600206A0500202DE9FE4FF7
:1049500004460D4616461F46DDE90D9ADDF8308007
:104960000020029000BF0CB900BF00BF00BF0022B2
:104970002A21032003F0D1FF8346BBF1000F09D1A8
:104980003448808C401C81B2324881844FF0FF3023
:10499000BDE8FE8F00BFBBF80A002A2801DA00BF7D
:1049A00000BF00BFDBF80410019101990E310091A6
:1049B0000F9803F0E4F90099C88000BF94F826002E
:1049C000062801D000BF00BF00BF0622394600986C
:1049D0000830FBF7DBFB0622494600981230FBF754
:1049E000D5FB062231460198FBF7D0FB062229466B
:1049F0000198801DFBF7CAFB0422414600980E3047
:104A0000FBF7C4FB0422514600981830FBF7BEFBAD
:104A10004FF4807100980180082000994880062199
:104A2000009801710421009841714FF4C16101980F
:104A3000818159462046A269904702900548008B23
:104A4000401C04490883584604F0A0F94FF0000BBD
:104A500002989DE7FC9400207FB504460D46012393
:104A60000649201D8DE82300039304F12703044A1F
:104A700019462046FFF76AFF04B070BDB2E800088F
:104A8000ACE800082DE9F04104460D46174698466B
:104A90006E6800BF94F82600062801D000BF00BF52
:104AA00000BF062241463046FBF770FB062239461E
:104AB000B01DFBF76BFB0820B08129462046A26998
:104AC0009047BDE8F081000070B500243DE004EBA4
:104AD00084001F4901EB8000857C25B304EB840032
:104AE00001EB8000C07C401C04EB8401184A02EBFF
:104AF0008101C87404EB8400114601EB8000C07C86
:104B0000F0280DDA04EB840001EB8000807C0128A2
:104B10000AD104EB840001EB8000C07C022803DB97
:104B20002046FFF70FFD0EE004EB8400084901EB7F
:104B30008000807C032806D1022004EB8401044A13
:104B400002EB81018874601CC4B20A2CBFDB70BD0B
:104B5000189600202DE9F04704460D4616461F46DC
:104B600000BF94F82600062801D000BF00BF00BF98
:104B70005DB1286848B12146286802F037FA20B9AB
:104B8000286800F0F000E02803D16FF00D00BDE8C8
:104B9000F08739462846FFF7FBFB8046B8F1000F47
:104BA00001DA4046F3E7022008EB88011B4A02EBDA
:104BB0008101887408EB8800114601EB8000846055
:104BC00008EB880102EB810101F10C00062231465D
:104BD000FBF7DCFA002008EB8801104A02EB8101A8
:104BE000C87408EB8800114651F8200098B108EB12
:104BF000880051F82090002008EB880142F821003D
:104C0000334604F1270249462046FFF73BFF48465A
:104C100004F0BCF800BF0020B9E70000189600209F
:104C20002DE9F04104460D464FF00E0860890E282C
:104C30000BDC3448008D401C81B232480185C08BAA
:104C4000401C81B22F48C18356E06668B78930782E
:104C500010F0010F16D03078012809D1707888B98A
:104C6000B0785E280ED1607B40F01000607309E0E0
:104C7000062225493046FBF7DAFA18B9607B40F086
:104C800008006073082F03D0B7F5C16F24D116E078
:104C900095F82D0010F0200F00D12DE0C8F1000094
:104CA00001B2204604F0CFF820B100BF00BF00BF22
:104CB00000BF21E02946204602F0B2FA18E095F83C
:104CC0002D0010F0200F00D116E0224605F127013B
:104CD0002846FFF79DFA0BE00A48008D401C81B280
:104CE00008480185C08B401C81B20648C18303E09F
:104CF00000BF0020BDE8F081204604F047F8002006
:104D0000F8E70000FC940020ACE8000870B5054608
:104D100000BF0DB900BF00BF00BF082003F036F987
:104D2000044614B94FF0FF3070BD0AA02862EC6150
:104D3000732085F82E0074212F20415507486861A3
:104D40000748A86105F127002060284602F062FFAD
:104D50000020E9E7776A775F697000008545000801
:104D6000ED7C000870B50446204602F099FF064627
:104D700016B94FF0FF3070BD21463046226990478A
:104D800005461DB1304604F001F800262846F2E73A
:104D900070B504460E461546605D30706019407867
:104DA000707060198178B1706019C178F170601904
:104DB0000079307160194079707160198179B17131
:104DC0006019C179F1716019082100F00FF8B06025
:104DD00060190C2100F00AF8F06070BD0246505CCA
:104DE00053185B7800EB032080B270470246C81C62
:104DF000105C0306881C105C03EB0043481C105C2D
:104E000003EB0023505C184470472DE9F04186B055
:104E100004460D4616460027B84600208DF80000CF
:104E2000049001900290039504E00298B04201D1F1
:104E3000DDF804803A467F1C6946204600F008F8F9
:104E400010B9B8F1000FF0D0404606B0BDE8F081CF
:104E500070B504460D4616466868B04201D8A86889
:104E600028B900206860E868A86000202870686899
:104E7000B04201D1002070BD13E0287848B12878F5
:104E8000401E28706868401C6860A868401CA860C4
:104E900007E02946204600F072F910B14FF0FF30CC
:104EA000E9E76868B042E8D10020E4E72DE9FC5F5B
:104EB00004460D461646B0464FF0000AD346002081
:104EC0000190E868012802D830B2BDE8FC9F29466D
:104ED000204601F026F881464F467AE07F1C206A82
:104EE000401CB8422AD8019818B34946204600F021
:104EF0009EF9009002222068009903F0C9FC8246C6
:104F0000204600F0BCF95346024649460090204630
:104F100000F088FAC5F810905146206803F0F4FCC0
:104F2000A6EB0801606B401A6063A6EB080000B2B4
:104F3000CBE702270198401CC0B2019039462046B9
:104F400000F075F9009001222068009903F0A0FCA0
:104F5000824652463946204600F0C1F8B8B9494663
:104F6000204600F064F9009002222068009903F0C6
:104F70008FFC83465B463A464946204600F052FA8B
:104F80005946206803F0C0FCA8F10108B946514613
:104F9000206803F0B9FCB8F1000F1AD14946204649
:104FA00000F045F9009002222068009903F070FC9F
:104FB0008246204600F063F9534602464946009077
:104FC000204600F02FFAC5F810905146206803F0F3
:104FD0009BFCB8F1000F81D1686910B16869304459
:104FE0006861002071E770B586B004460E46002562
:104FF000012E02D8002006B070BD00208DF8000000
:10500000049001900290039600BF2A466D1C6946E9
:105010002046FFF71DFF0028F7D0681EEBE72DE9BB
:10502000F05F04460D464FF0000B2946204600F085
:10503000FEF882462089AAEB0000616A814202D90B
:10504000BAF1000F02D10020BDE8F09F01225146C5
:10505000206803F01DFC064694F83C00012804D0AB
:1050600002282BD0032833D12DE005EB4500C0F3F7
:10507000480916F80970A9F58070FF380DD131463E
:10508000206803F041FC01220AF10101206803F0CD
:10509000FFFB064696F8008003E009F1010016F8D0
:1050A000008015F0010F04D108F00F0007EB002B72
:1050B00003E04FEA081000EB271B09E005F0FF09A9
:1050C00036F819B004E005F07F0956F829B000BFA2
:1050D00000BF3146206803F017FC5846B4E72DE9BD
:1050E000F84F04460D4616460020009094F83C0008
:1050F000012804D0022832D003283CD135E005EB4A
:105100004500C0F3480A16F80A80AAF58070FF38F7
:1051100012D12946204600F08AF800F1010B012245
:105120005946206803F0B4FB074697F800903946CB
:10513000206803F0E9FB03E00AF1010016F8009093
:1051400015F0010F05D109F00F0008EB00200090C9
:1051500004E04FEA091000EB281000900BE005F086
:10516000FF0A36F81A00009005E005F07F0A56F8AD
:105170002A00009000BF00BF0098BDE8F88F2DE91D
:10518000F05F04460D464FF0000AA86818B94FF0CA
:10519000FF30BDE8F09F2046A96800F048F80646B9
:1051A00001223146206803F073FB83465A462046AD
:1051B000A968FFF794FF81464946204600F074F83D
:1051C00040B1A86828615946206803F09DFB4FF064
:1051D000FF30DEE7C5F808906868401C6860A86882
:1051E000471E07F101080AE047465A46394620465D
:1051F000FFF775FF80460AF101000FFA80FAA8F167
:105200000100B84205D14146204600F010F8B042F6
:10521000EAD0BAF1010001D5002001E0AAF10100B5
:1052200028705946206803F06FFB0020B1E710B5E5
:105230000246148992F83C00012804D002280CD0C0
:1052400003281AD111E001EB4100830A506A984209
:1052500001D8002010BDE018FCE70B0A506A984204
:1052600001D80020F6E7E018F4E7CB09506A98422D
:1052700001D80020EEE7E018ECE70020EAE701465D
:1052800091F83C00012804D0022805D0032809D158
:1052900005E040F6FF7070474FF6FF70FBE76FF0D8
:1052A0007040F8E70020F6E7024692F83C0001283B
:1052B00004D0022809D0032816D10DE040F6F8707A
:1052C000814201D2002070470EE04FF6F870814213
:1052D00001D20020F7E707E021F07040044B98422C
:1052E00001D20020EFE700BF00BF0120EBE7000084
:1052F000F8FFFF0F2DE9F05F04460D4616462946DC
:105300002046FFF794FF82462089AAEB0000616ADD
:10531000814202D9BAF1000F01D1BDE8F09F02220B
:105320005146206803F0B4FA074694F83C0001287F
:1053300004D0022862D0032872D168E005EB450052
:10534000C0F34809A9F58070FF3831D115F0010F7D
:1053500002D107F8096009E017F8090000F00F0012
:10536000F02101EA0611084407F809002946204601
:10537000FFF75DFF00F1010B02225946206803F0A0
:1053800087FA804615F0010F09D198F8000000F067
:10539000F000C6F30321084488F8000003E0C6F3D8
:1053A000071088F800004146206803F0ADFA20E0BD
:1053B00015F0010F0ED107F8096009F10100385C02
:1053C00000F0F000C6F303210844C1B209F1010066
:1053D00039540EE017F8090000F00F00F02101EA3F
:1053E0000611084407F80900C6F3071009F1010186
:1053F00078543946206803F087FA11E005F0FF0978
:1054000027F819603946206803F07EFA08E005F0B5
:105410007F0947F829603946206803F075FA00BF14
:1054200000BF7AE72DE9F04704460D4616461F46B1
:1054300094F83C00012804D002285ED0032866D1ED
:1054400060E005EB4500C0F34808A8F58070FF3820
:1054500031D115F0010F02D107F8086009E017F803
:10546000080000F00F00F02101EA0611084407F8D7
:10547000080029462046FFF7DAFE00F1010A022261
:105480005146206803F004FA814615F0010F09D156
:1054900099F8000000F0F000C6F30321084489F8F1
:1054A000000003E0C6F3071089F8000049462068B1
:1054B00003F02AFA20E015F0010F0ED107F808607A
:1054C00008F10100385C00F0F000C6F30321084445
:1054D000C1B208F1010039540EE017F8080000F0DD
:1054E0000F00F02101EA0611084407F80800C6F38E
:1054F000071108F10100395409E005F0FF0827F809
:10550000186004E005F07F0847F8286000BF00BF7E
:10551000BDE8F08710B5044600F037FD98B10020D3
:1055200060820121204600F0A3FA28B1E06CE0611E
:10553000608A20830020E08204F120022146A06AD4
:10554000FEF7E8FD0AE00121204600F091FA28B1BB
:1055500004F12001E26CA06AFEF7ADFD5021204667
:1055600002F078FC00221146204600F035FB0022B4
:105570000121204600F030FB002010BD2DE9F04154
:105580008EB004460D4616461F4601A93046FEF76A
:1055900056FD612F7ED0722F02D0772F7BD122E073
:1055A00000230CAA3146284600F0F3FB012817D14E
:1055B0000CAA21462846FEF766FD0CAA294620467D
:1055C00000F05DFA01220021204600F005FB0022D8
:1055D0000121204600F000FB00200EB0BDE8F08164
:1055E0004FF0FF30F9E76B460CAA3146284600F031
:1055F000D0FB012815D10CAA21462846FEF743FD11
:105600000CAA2946204600F03AFA01220021204641
:1056100000F0E2FA01221146204600F0DDFA0020F7
:10562000DBE7009810B96FF00300D6E700230CAA5F
:105630003146284600F02CFC002844D001AA04A9D9
:105640002846FEF7A2FB0CAA04A92846FEF7B8FBE1
:105650002022214604A802F006FC0CAA2946204676
:1056600000F00DFAA06A00F08DFC80464146A06A69
:1056700000F075FC0090A06A04F12001009AFEF78A
:105680002FFD2046009900F008FD04F12C0128466A
:10569000009A01E01AE0ABE000F079FC2846FFF741
:1056A000EEFD8046024628460099FFF723FE0122C0
:1056B0000021204600F090FA01221146204600F019
:1056C0008BFA002089E76FF0020086E700230CAA1E
:1056D0003146284600F05DFB01283BD10CAA21464B
:1056E0002846FEF7D0FC0CAA2946204600F0C7F950
:1056F000A06B00BBA06A00F045FC80464146A06A52
:1057000000F02DFC0090A06A04F12001009AFEF741
:10571000E7FC2046009900F0C0FC2846FFF7AFFDEB
:105720008046024628460099FFF7E4FD0CAA294668
:10573000204600F0A4F92046E16C00F05FFA012257
:105740000021204600F048FA01221146204600F0D0
:1057500043FA4BE000230CAA3146284600F098FBA0
:10576000002840D001AA04A92846FEF70EFB0CAA87
:1057700004A92846FEF724FB2022214604A802F0B3
:1057800072FB0CAA2946204600F079F9A06A00F0C5
:10579000F9FB80464146A06A00F0E1FB0090A06A58
:1057A00004F12001009AFEF79BFC2046009900F0CE
:1057B00074FC04F12C012846009A00F0E8FB28460E
:1057C000FFF75DFD8046024628460099FFF792FDEF
:1057D00001220021204600F0FFF901221146204657
:1057E00000F0FAF902E06FF00200F6E60020F4E6BD
:1057F0006FF00300F1E62DE9F04F87B004460D4647
:1058000016461F464FF00008B146AA460021204622
:1058100000F02EF918B9002007B0BDE8F08FE06C59
:10582000A84201D84FF00009A819E16C884205D9B7
:10583000B9F1000F02D0E06CA0EB050963E0A06AAB
:1058400080794002BAFBF0F006904FEA5A21A06A34
:105850008079B1FBF0F200FB12100590CAF308004A
:105860000490049810B9B9F5007F0DD2CAF308006E
:10587000C0F50070484501D3484603E0CAF308006C
:10588000C0F50070029002E04FF400700290A06A30
:1058900004F12C01069AFFF7DBFA08B10020BBE700
:1058A000606B0390A06A039900F011FA8346029896
:1058B000B0F5007F09D107EB0802059B0BEB030154
:1058C000A36A186802F09FFF16E0059A0BEB02012D
:1058D000A26A1068012202F0DBFF019007EB0801C9
:1058E000CAF30803019A9818029A02F0BCFAA16A56
:1058F0000868019903F008F80298824402988044ED
:105900000298A9EB0009B9F1000F98D1404683E74E
:105910002DE9FF4F87B004460D461E46DDF8249062
:105920004FF0000A03950021204600F0A1F820B1B5
:105930000121204600F09CF818B900200BB0BDE80A
:10594000F08FE06CA84200D2E56C29462046099A07
:1059500000F00BF90690069840B1A06A04F12C0102
:10596000069AFFF7A3FA08B10020E7E771E0A06A02
:10597000807941020398B0FBF1F005900398410A49
:10598000A06A8079B1FBF0F200FB12170398C0F314
:105990000808B8F1000F02D1B9F5007F10D20398C2
:1059A000C0F30800C0F50070484501D3484604E044
:1059B0000398C0F30800C0F5007080B2029002E0C6
:1059C0004FF400700290A06A04F12C01059AFFF7D1
:1059D0003FFA50B1E06C5044E06404F12001E26C05
:1059E000A06AFEF768FB5046A8E7606B0490A06AC7
:1059F000049900F06CF983460298B0F5007F08D155
:105A000006EB0A020BEB0701A36A186802F00DFF10
:105A100016E00BEB0701A26A1068022202F038FFC1
:105A20000190039AC2F30803019A991806EB0A0041
:105A3000029A02F018FAA16A0868019902F064FF5C
:105A4000DDE9021008440390029882440298A9EB11
:105A50000009B9F1000F8AD1E06C401B504505D216
:105A6000E06C411BAAEB01010844E064504665E785
:105A7000024692F8440001238B401840704710B54D
:105A80008162C369C3640023836413680362147969
:105A900024231C54002380F82C30438B848A03EB8E
:105AA000044484630024C4630463846B446310BDB2
:105AB00070B502460B4600250026002403E0202096
:105AC0001855601CC4B20B2CF9DB002410782E286A
:105AD0000AD11870701CC6B250782E2802D15870A6
